{
  "contractName": "KryptoBird",
  "abi": [
    {
      "inputs": [],
      "stateMutability": "nonpayable",
      "type": "constructor"
    },
    {
      "anonymous": false,
      "inputs": [
        {
          "indexed": true,
          "internalType": "address",
          "name": "from",
          "type": "address"
        },
        {
          "indexed": true,
          "internalType": "address",
          "name": "to",
          "type": "address"
        },
        {
          "indexed": true,
          "internalType": "uint256",
          "name": "tokenId",
          "type": "uint256"
        }
      ],
      "name": "Transfer",
      "type": "event"
    },
    {
      "inputs": [
        {
          "internalType": "address",
          "name": "_owner",
          "type": "address"
        }
      ],
      "name": "balanceOf",
      "outputs": [
        {
          "internalType": "uint256",
          "name": "",
          "type": "uint256"
        }
      ],
      "stateMutability": "view",
      "type": "function",
      "constant": true
    },
    {
      "inputs": [
        {
          "internalType": "uint256",
          "name": "",
          "type": "uint256"
        }
      ],
      "name": "kryptoBirdz",
      "outputs": [
        {
          "internalType": "string",
          "name": "",
          "type": "string"
        }
      ],
      "stateMutability": "view",
      "type": "function",
      "constant": true
    },
    {
      "inputs": [],
      "name": "name",
      "outputs": [
        {
          "internalType": "string",
          "name": "",
          "type": "string"
        }
      ],
      "stateMutability": "view",
      "type": "function",
      "constant": true
    },
    {
      "inputs": [
        {
          "internalType": "uint256",
          "name": "_tokenId",
          "type": "uint256"
        }
      ],
      "name": "ownerOf",
      "outputs": [
        {
          "internalType": "address",
          "name": "",
          "type": "address"
        }
      ],
      "stateMutability": "view",
      "type": "function",
      "constant": true
    },
    {
      "inputs": [],
      "name": "symbol",
      "outputs": [
        {
          "internalType": "string",
          "name": "",
          "type": "string"
        }
      ],
      "stateMutability": "view",
      "type": "function",
      "constant": true
    },
    {
      "inputs": [
        {
          "internalType": "string",
          "name": "_kryptoBird",
          "type": "string"
        }
      ],
      "name": "mint",
      "outputs": [],
      "stateMutability": "nonpayable",
      "type": "function"
    }
  ],
  "bytecode": "0x60806040523480156200001157600080fd5b506040518060400160405280600a81526020017f4b727970746f42697264000000000000000000000000000000000000000000008152506040518060400160405280600681526020017f4b424952445a00000000000000000000000000000000000000000000000000008152508181816000908162000091919062000328565b508060019081620000a3919062000328565b50505050506200040f565b600081519050919050565b7f4e487b7100000000000000000000000000000000000000000000000000000000600052604160045260246000fd5b7f4e487b7100000000000000000000000000000000000000000000000000000000600052602260045260246000fd5b600060028204905060018216806200013057607f821691505b602082108103620001465762000145620000e8565b5b50919050565b60008190508160005260206000209050919050565b60006020601f8301049050919050565b600082821b905092915050565b600060088302620001b07fffffffffffffffffffffffffffffffffffffffffffffffffffffffffffffffff8262000171565b620001bc868362000171565b95508019841693508086168417925050509392505050565b6000819050919050565b6000819050919050565b60006200020962000203620001fd84620001d4565b620001de565b620001d4565b9050919050565b6000819050919050565b6200022583620001e8565b6200023d620002348262000210565b8484546200017e565b825550505050565b600090565b6200025462000245565b620002618184846200021a565b505050565b5b8181101562000289576200027d6000826200024a565b60018101905062000267565b5050565b601f821115620002d857620002a2816200014c565b620002ad8462000161565b81016020851015620002bd578190505b620002d5620002cc8562000161565b83018262000266565b50505b505050565b600082821c905092915050565b6000620002fd60001984600802620002dd565b1980831691505092915050565b6000620003188383620002ea565b9150826002028217905092915050565b6200033382620000ae565b67ffffffffffffffff8111156200034f576200034e620000b9565b5b6200035b825462000117565b620003688282856200028d565b600060209050601f831160018114620003a057600084156200038b578287015190505b6200039785826200030a565b86555062000407565b601f198416620003b0866200014c565b60005b82811015620003da57848901518255600182019150602085019450602081019050620003b3565b86831015620003fa5784890151620003f6601f891682620002ea565b8355505b6001600288020188555050505b505050505050565b61115c806200041f6000396000f3fe608060405234801561001057600080fd5b50600436106100625760003560e01c806306fdde03146100675780636352211e1461008557806370a08231146100b557806393ab6e56146100e557806395d89b4114610115578063d85d3d2714610133575b600080fd5b61006f61014f565b60405161007c9190610846565b60405180910390f35b61009f600480360381019061009a91906108b2565b6101e1565b6040516100ac9190610920565b60405180910390f35b6100cf60048036038101906100ca9190610967565b610292565b6040516100dc91906109a3565b60405180910390f35b6100ff60048036038101906100fa91906108b2565b610349565b60405161010c9190610846565b60405180910390f35b61011d6103f5565b60405161012a9190610846565b60405180910390f35b61014d60048036038101906101489190610af3565b610487565b005b60606000805461015e90610b6b565b80601f016020809104026020016040519081016040528092919081815260200182805461018a90610b6b565b80156101d75780601f106101ac576101008083540402835291602001916101d7565b820191906000526020600020905b8154815290600101906020018083116101ba57829003601f168201915b5050505050905090565b6000806002600084815260200190815260200160002060009054906101000a900473ffffffffffffffffffffffffffffffffffffffff169050600073ffffffffffffffffffffffffffffffffffffffff168173ffffffffffffffffffffffffffffffffffffffff1603610289576040517f08c379a000000000000000000000000000000000000000000000000000000000815260040161028090610c0e565b60405180910390fd5b80915050919050565b60008073ffffffffffffffffffffffffffffffffffffffff168273ffffffffffffffffffffffffffffffffffffffff1603610302576040517f08c379a00000000000000000000000000000000000000000000000000000000081526004016102f990610c0e565b60405180910390fd5b600360008373ffffffffffffffffffffffffffffffffffffffff1673ffffffffffffffffffffffffffffffffffffffff168152602001908152602001600020549050919050565b6004818154811061035957600080fd5b90600052602060002001600091509050805461037490610b6b565b80601f01602080910402602001604051908101604052809291908181526020018280546103a090610b6b565b80156103ed5780601f106103c2576101008083540402835291602001916103ed565b820191906000526020600020905b8154815290600101906020018083116103d057829003601f168201915b505050505081565b60606001805461040490610b6b565b80601f016020809104026020016040519081016040528092919081815260200182805461043090610b6b565b801561047d5780601f106104525761010080835404028352916020019161047d565b820191906000526020600020905b81548152906001019060200180831161046057829003601f168201915b5050505050905090565b6005816040516104979190610c6a565b908152602001604051809103902060009054906101000a900460ff16156104f3576040517f08c379a00000000000000000000000000000000000000000000000000000000081526004016104ea90610cf3565b60405180910390fd5b6004819080600181540180825580915050600190039060005260206000200160009091909190915090816105279190610ebf565b506000600160048054905061053c9190610fc0565b90506105483382610583565b600160058360405161055a9190610c6a565b908152602001604051809103902060006101000a81548160ff0219169083151502179055505050565b600073ffffffffffffffffffffffffffffffffffffffff168273ffffffffffffffffffffffffffffffffffffffff16036105f2576040517f08c379a00000000000000000000000000000000000000000000000000000000081526004016105e990611066565b60405180910390fd5b6105fb81610744565b1561063b576040517f08c379a0000000000000000000000000000000000000000000000000000000008152600401610632906110d2565b60405180910390fd5b816002600083815260200190815260200160002060006101000a81548173ffffffffffffffffffffffffffffffffffffffff021916908373ffffffffffffffffffffffffffffffffffffffff1602179055506001600360008473ffffffffffffffffffffffffffffffffffffffff1673ffffffffffffffffffffffffffffffffffffffff16815260200190815260200160002060008282546106dd91906110f2565b92505081905550808273ffffffffffffffffffffffffffffffffffffffff16600073ffffffffffffffffffffffffffffffffffffffff167fddf252ad1be2c89b69c2b068fc378daa952ba7f163c4a11628f55a4df523b3ef60405160405180910390a45050565b6000806002600084815260200190815260200160002060009054906101000a900473ffffffffffffffffffffffffffffffffffffffff169050600073ffffffffffffffffffffffffffffffffffffffff168173ffffffffffffffffffffffffffffffffffffffff161415915050919050565b600081519050919050565b600082825260208201905092915050565b60005b838110156107f05780820151818401526020810190506107d5565b60008484015250505050565b6000601f19601f8301169050919050565b6000610818826107b6565b61082281856107c1565b93506108328185602086016107d2565b61083b816107fc565b840191505092915050565b60006020820190508181036000830152610860818461080d565b905092915050565b6000604051905090565b600080fd5b600080fd5b6000819050919050565b61088f8161087c565b811461089a57600080fd5b50565b6000813590506108ac81610886565b92915050565b6000602082840312156108c8576108c7610872565b5b60006108d68482850161089d565b91505092915050565b600073ffffffffffffffffffffffffffffffffffffffff82169050919050565b600061090a826108df565b9050919050565b61091a816108ff565b82525050565b60006020820190506109356000830184610911565b92915050565b610944816108ff565b811461094f57600080fd5b50565b6000813590506109618161093b565b92915050565b60006020828403121561097d5761097c610872565b5b600061098b84828501610952565b91505092915050565b61099d8161087c565b82525050565b60006020820190506109b86000830184610994565b92915050565b600080fd5b600080fd5b7f4e487b7100000000000000000000000000000000000000000000000000000000600052604160045260246000fd5b610a00826107fc565b810181811067ffffffffffffffff82111715610a1f57610a1e6109c8565b5b80604052505050565b6000610a32610868565b9050610a3e82826109f7565b919050565b600067ffffffffffffffff821115610a5e57610a5d6109c8565b5b610a67826107fc565b9050602081019050919050565b82818337600083830152505050565b6000610a96610a9184610a43565b610a28565b905082815260208101848484011115610ab257610ab16109c3565b5b610abd848285610a74565b509392505050565b600082601f830112610ada57610ad96109be565b5b8135610aea848260208601610a83565b91505092915050565b600060208284031215610b0957610b08610872565b5b600082013567ffffffffffffffff811115610b2757610b26610877565b5b610b3384828501610ac5565b91505092915050565b7f4e487b7100000000000000000000000000000000000000000000000000000000600052602260045260246000fd5b60006002820490506001821680610b8357607f821691505b602082108103610b9657610b95610b3c565b5b50919050565b7f6f776e657220717565727920666f72206e6f6e6578697374656e7420746f6b6560008201527f6e00000000000000000000000000000000000000000000000000000000000000602082015250565b6000610bf86021836107c1565b9150610c0382610b9c565b604082019050919050565b60006020820190508181036000830152610c2781610beb565b9050919050565b600081905092915050565b6000610c44826107b6565b610c4e8185610c2e565b9350610c5e8185602086016107d2565b80840191505092915050565b6000610c768284610c39565b915081905092915050565b7f4572726f72202d206b727970746f4269726420616c726561647920657869737460008201527f7300000000000000000000000000000000000000000000000000000000000000602082015250565b6000610cdd6021836107c1565b9150610ce882610c81565b604082019050919050565b60006020820190508181036000830152610d0c81610cd0565b9050919050565b60008190508160005260206000209050919050565b60006020601f8301049050919050565b600082821b905092915050565b600060088302610d757fffffffffffffffffffffffffffffffffffffffffffffffffffffffffffffffff82610d38565b610d7f8683610d38565b95508019841693508086168417925050509392505050565b6000819050919050565b6000610dbc610db7610db28461087c565b610d97565b61087c565b9050919050565b6000819050919050565b610dd683610da1565b610dea610de282610dc3565b848454610d45565b825550505050565b600090565b610dff610df2565b610e0a818484610dcd565b505050565b5b81811015610e2e57610e23600082610df7565b600181019050610e10565b5050565b601f821115610e7357610e4481610d13565b610e4d84610d28565b81016020851015610e5c578190505b610e70610e6885610d28565b830182610e0f565b50505b505050565b600082821c905092915050565b6000610e9660001984600802610e78565b1980831691505092915050565b6000610eaf8383610e85565b9150826002028217905092915050565b610ec8826107b6565b67ffffffffffffffff811115610ee157610ee06109c8565b5b610eeb8254610b6b565b610ef6828285610e32565b600060209050601f831160018114610f295760008415610f17578287015190505b610f218582610ea3565b865550610f89565b601f198416610f3786610d13565b60005b82811015610f5f57848901518255600182019150602085019450602081019050610f3a565b86831015610f7c5784890151610f78601f891682610e85565b8355505b6001600288020188555050505b505050505050565b7f4e487b7100000000000000000000000000000000000000000000000000000000600052601160045260246000fd5b6000610fcb8261087c565b9150610fd68361087c565b9250828203905081811115610fee57610fed610f91565b5b92915050565b7f4552433732313a206d696e74696e6720746f20746865207a65726f206164647260008201527f6573730000000000000000000000000000000000000000000000000000000000602082015250565b60006110506023836107c1565b915061105b82610ff4565b604082019050919050565b6000602082019050818103600083015261107f81611043565b9050919050565b7f4552433732313a20746f6b656e20616c7265616479206d696e74656400000000600082015250565b60006110bc601c836107c1565b91506110c782611086565b602082019050919050565b600060208201905081810360008301526110eb816110af565b9050919050565b60006110fd8261087c565b91506111088361087c565b92508282019050808211156111205761111f610f91565b5b9291505056fea26469706673582212200411deadbc9a60793e32362bf85a811c33873f0e6a6f27adadf1620deffc32a964736f6c63430008130033",
  "immutableReferences": {},
  "source": "// SPDX-License-Identifier: MIT\r\npragma solidity ^0.8.0;\r\n\r\nimport './ERC721Connector.sol';\r\n\r\ncontract KryptoBird is ERC721Connector {\r\n  string[] public kryptoBirdz;\r\n\r\n  mapping(string => bool) _kryptoBirdzExists;\r\n\r\n  function mint(string memory _kryptoBird) public {\r\n    require(!_kryptoBirdzExists[_kryptoBird], 'Error - kryptoBird already exists');\r\n\r\n    // uint _id = kryptoBirdz.push(_kryptoBird); // deprecated\r\n    kryptoBirdz.push(_kryptoBird);\r\n    uint _id = kryptoBirdz.length - 1;\r\n    _mint(msg.sender, _id);\r\n    _kryptoBirdzExists[_kryptoBird] = true;\r\n  }\r\n  \r\n  constructor() ERC721Connector('KryptoBird', 'KBIRDZ') {\r\n  }\r\n}\r\n",
  "sourcePath": "D:\\BlockChain\\Dev\\nft-marketplace-starter-kit\\contracts\\KryptoBirdz.sol",
  "compiler": {
    "name": "solc",
    "version": "0.8.19+commit.7dd6d404.Emscripten.clang"
  },
  "schemaVersion": "3.4.13",
  "updatedAt": "2023-04-20T13:25:37.843Z",
  "networkType": "ethereum",
  "devdoc": {
    "kind": "dev",
    "methods": {},
    "version": 1
  },
  "userdoc": {
    "kind": "user",
    "methods": {},
    "version": 1
  }
}